:020000040800F2
:1000000090DC012051B400085D2100085F21000848
:1000100063210008672100086B2100080000000030
:1000200000000000000000000000000063B40008B1
:100030006F21000800000000E529020875E80008AB
:100040006BB400086BB400086BB400086BB4000814
:100050006BB400086BB400086BB400086BB4000804
:100060006BB400086BB400086BB400086BB40008F4
:100070006BB400086BB400086BB400086BB40008E4
:100080006BB400086BB400086BB400086BB40008D4
:100090006BB400086BB400086BB400086BB40008C4
:1000A0006BB400086BB400086BB400086BB40008B4
:1000B0006BB400085D2400084DF100086BB4000823
:1000C0006BB400086BB400086BB400086BB4000894
:1000D0006BB4000849EA00086BB400086BB4000870
:1000E0006BB400086BB400086BB400086BB4000874
:1000F0006BB400086BB400086BB400086BB4000864
:100100006BB400086BB400086BB400086BB4000853
:100110006BB400086BB400086BB400086BB4000843
:100120006BB400086BB400086BB400086BB4000833
:100130006BB40008B17300086BB400086BB400081E
:100140006BB400086BB400086BB400086BB4000813
:100150006BB400086BB400086BB400086BB4000803
:100160006BB400086BB400086BB400086BB40008F3
:100170006BB400086BB400086BB400086BB40008E3
:100180006BB400086BB4000800F002F800F07EF8D1
:100190000AA090E8000C82448344AAF10107DA45E2
:1001A00001D100F073F8AFF2090EBAE80F0013F0B6
:1001B000010F18BFFB1A43F0010318475C6F0200E0
:1001C0007C6F02000A444FF0000C10F8013B13F062
:1001D000070408BF10F8014B1D1108BF10F8015BA0
:1001E000641E05D010F8016B641E01F8016BF9D193
:1001F00013F0080F1EBF10F8014BAD1C0C1B09D1EA
:100200006D1E58BF01F801CBFAD505E014F8016B5B
:1002100001F8016B6D1EF9D59142D6D370470000ED
:100220000023002400250026103A28BF78C1FBD8FF
:10023000520728BF30C148BF0B607047662924F0C1
:10024000B287642922F09E85752922F09B85782942
:1002500022F0D485632923F0B082732923F0B5827C
:10026000002070471FB524F094FF23F007F8040026
:100270000020002124F042FA401C60600020002190
:1002800024F052FAE0601FBD10B510BD23F0B8FB9A
:100290001146FFF7E7FF01F062FD23F0D6FB03B440
:1002A000FFF7F2FF03BC0EF06BFB000000B52DED75
:1002B000020B8BB09FEDFE0A8DED0A0A0B9824F01D
:1002C000F7FE9FEDFC0B53EC102BCDE908019DEDE3
:1002D000080B51EC100B24F0C7FC2CD29DED0B0A3F
:1002E000DFEDF30A30EE600A8DED030A039824F087
:1002F000DFFE9FEDF00B53EC102BCDE904019DEDDB
:10030000040B51EC100B24F017FB9FEDEC0B53EC9E
:10031000102BCDE906019DED060B51EC100B24F0DE
:10032000DFFCCDE908019DED080B51EC100B24F02A
:100330001DFA0A901DE20B9824F0BAFE9FEDE10B26
:1003400053EC102BCDE908019DED080B51EC100B7F
:1003500024F08AFC3CD20B9824F0AAFE9FEDD50B2A
:1003600053EC102BCDE900019DED000B51EC100B6F
:1003700024F0B4FD9FEDD50B53EC102BCDE9020119
:100380009DED020B51EC100B24F0D6FA9FEDD10B32
:1003900053EC102BCDE904019DED040B51EC100B37
:1003A00024F09EFC9FEDC50B53EC102BCDE906010C
:1003B0009DED060B51EC100B24F00AFACDE9080173
:1003C0009DED080B51EC100B24F0D0F90A90D0E110
:1003D0000B9824F06DFE9FEDC10B53EC102BCDE973
:1003E00008019DED080B51EC100B24F03DFC3CD2B4
:1003F0000B9824F05DFE9FEDB30B53EC102BCDE971
:1004000000019DED000B51EC100B24F067FD9FEDFA
:10041000B50B53EC102BCDE902019DED020B51EC15
:10042000100B24F089FA9FEDB10B53EC102BCDE9A2
:1004300004019DED040B51EC100B24F051FC9FEDD9
:10044000AB0B53EC102BCDE906019DED060B51ECE7
:10045000100B24F0BDF9CDE908019DED080B51EC1E
:10046000100B24F083F90A9083E10B9824F020FE0E
:100470009FEDA00B53EC102BCDE908019DED080B6F
:1004800051EC100B24F0F0FB3CD20B9824F010FE42
:100490009FED920B53EC102BCDE900019DED000B6D
:1004A00051EC100B24F01AFD9FED940B53EC102B24
:1004B000CDE902019DED020B51EC100B24F03CFA4A
:1004C0009FED900B53EC102BCDE904019DED040B37
:1004D00051EC100B24F004FC9FED8C0B53EC102B13
:1004E000CDE906019DED060B51EC100B24F070F9DF
:1004F000CDE908019DED080B51EC100B24F036F905
:100500000A9036E10B9824F0D3FD9FED820B53EC5B
:10051000102BCDE908019DED080B51EC100B24F0D8
:10052000A3FB30D20B9824F0C3FD9FED720B53EC6C
:10053000102BCDE902019DED020B51EC100B24F0C4
:10054000CDFC9FED760B53EC102BCDE904019DED16
:10055000040B51EC100B24F0EFF99FED720B53ECF0
:10056000102BCDE906019DED060B51EC100B24F08C
:100570002FF9CDE908019DED080B51EC100B24F08B
:10058000F5F80A90F5E00B9824F092FD9FED670BCB
:1005900053EC102BCDE908019DED080B51EC100B2D
:1005A00024F062FB3CD20B9824F082FD9FED590BA6
:1005B00053EC102BCDE900019DED000B51EC100B1D
:1005C00024F08CFC9FED430B53EC102BCDE9020182
:1005D0009DED020B51EC100B24F0AEF99FED550B85
:1005E00053EC102BCDE904019DED040B51EC100BE5
:1005F00024F076FB9FED510B53EC102BCDE9060157
:100600009DED060B51EC100B24F0E2F8CDE908014A
:100610009DED080B51EC100B24F0A8F80A90A8E00F
:100620000B9824F045FD9FED470B53EC102BCDE9C3
:1006300008019DED080B51EC100B24F015FB35D291
:100640000B9824F035FD9FED390B53EC102BCDE9C1
:1006500000019DED000B51EC100B24F03FFC9FEDD1
:100660003B0B53EC102BCDE902019DED020B51EC3D
:10067000100B24F061F99FED370B53EC102BCDE9F3
:1006800004019DED040B51EC100B24F029FB9FEDB0
:10069000330B53EC102BCDE906019DED060B51EC0D
:1006A000100B24F095F8CDE908015BE062E0000052
:1006B00000000000FA7E6ABC7493683F00000000EE
:1006C000000000407B14AE47E17A843F79E926318F
:1006D00008AC7C3F00000000000008401B2FDD2418
:1006E0000681953FBA490C022B87863F0000000027
:1006F00000001440B81E85EB51B89E3F000000007A
:1007000000002240000000000088C34000000000FC
:10071000000024407B14AE47E17AA43FFCA9F1D24B
:100720004D62503F0000000000003440295C8FC241
:10073000F528AC3F000000000040AF400000000082
:1007400000003E4023DBF97E6ABCB43F000000009D
:1007500000002A4000000000006AD84000000000AD
:10076000000049409DED080B51EC100B23F0FEFFFB
:100770000A9063E20B9824F09BFC9FEDFD0B53EC79
:10078000102BCDE908019DED080B51EC100B24F066
:100790006BFA30D20B9824F08BFC1FED160B53EC48
:1007A000102BCDE902019DED020B51EC100B24F052
:1007B00095FB9FEDF10B53EC102BCDE904019DED62
:1007C000040B51EC100B24F08BFA9FEDED0B53EC66
:1007D000102BCDE906019DED060B51EC100B23F01B
:1007E000F7FFCDE908019DED080B51EC100B23F04C
:1007F000BDFF0A90E9E30B9824F05AFC9FEDE20B51
:1008000053EC102BCDE908019DED080B51EC100BBA
:1008100024F02AFA3CD20B9824F04AFC9FEDD40B2A
:1008200053EC102BCDE900019DED000B51EC100BAA
:1008300024F054FB9FEDD60B53EC102BCDE90201B5
:100840009DED020B51EC100B24F04AFA9FEDD20BF8
:1008500053EC102BCDE904019DED040B51EC100B72
:1008600024F06AF89FEDCE0B53EC102BCDE9060176
:100870009DED060B51EC100B23F0AAFFCDE908010A
:100880009DED080B51EC100B23F070FF0A909CE3D8
:100890000B9824F00DFC9FEDC40B53EC102BCDE90D
:1008A00008019DED080B51EC100B24F0DDF93CD252
:1008B0000B9824F0FDFB9FEDB40B53EC102BCDE90E
:1008C00000019DED000B51EC100B24F007FB9FED98
:1008D000B80B53EC102BCDE902019DED020B51EC4E
:1008E000100B24F0FDF99FEDB40B53EC102BCDE968
:1008F00004019DED040B51EC100B24F01DF89FED4D
:10090000B00B53EC102BCDE906019DED060B51EC1D
:10091000100B23F05DFFCDE908019DED080B51ECB4
:10092000100B23F023FF0A904FE30B9824F0C0FB39
:100930009FEDA50B53EC102BCDE908019DED080BA5
:1009400051EC100B24F090F93CD20B9824F0B0FB42
:100950009FED950B53EC102BCDE900019DED000BA5
:1009600051EC100B24F0BAFA1FED9A0B53EC102B3C
:10097000CDE902019DED020B51EC100B24F0B0F912
:100980001FEDAC0B53EC102BCDE904019DED040BD6
:1009900051EC100B23F0D0FF9FED8D0B53EC102B7F
:1009A000CDE906019DED060B51EC100B23F010FF75
:1009B000CDE908019DED080B51EC100B23F0D6FE9C
:1009C0000A9002E30B9824F073FB9FED830B53EC2A
:1009D000102BCDE908019DED080B51EC100B24F014
:1009E00043F93CD20B9824F063FB9FED770B53EC5B
:1009F000102BCDE900019DED000B51EC100B24F004
:100A00006DFA9FED6B0B53EC102BCDE902019DEDC0
:100A1000020B51EC100B24F063F99FED710B53ECBA
:100A2000102BCDE904019DED040B51EC100B23F0CC
:100A300083FF9FED6D0B53EC102BCDE906019DED6F
:100A4000060B51EC100B23F0C3FECDE908019DED20
:100A5000080B51EC100B23F089FE0A90B5E20B98BD
:100A600024F026FB9FED620B53EC102BCDE908011F
:100A70009DED080B51EC100B24F0F6F83CD20B98CE
:100A800024F016FB9FED540B53EC102BCDE9000125
:100A90009DED000B51EC100B24F020FA9FED440B60
:100AA00053EC102BCDE902019DED020B51EC100B24
:100AB00024F016F99FED400B53EC102BCDE9040107
:100AC0009DED040B51EC100B23F036FF9FED4A0B0C
:100AD00053EC102BCDE906019DED060B51EC100BEC
:100AE00023F076FECDE908019DED080B51EC100BCB
:100AF00023F03CFE0A9068E20B9824F0D9FA9FEDAF
:100B0000400B53EC102BCDE908019DED080B51EC87
:100B1000100B24F0A9F87FD20B9824F0C9FA9FEDAE
:100B2000340B53EC102BCDE900019DED000B51EC83
:100B3000100B24F0D3F99FED1E0B53EC102BCDE9D5
:100B400002019DED020B51EC100B24F0C9F89FED52
:100B50002E0B53EC102BCDE904019DED040B51EC51
:100B6000100B23F0E9FE9FED2A0B53EC102B54E001
:100B7000F853E3A59BC4C03F0000000000409F4025
:100B80000000000000005940736891ED7C3FC53FB4
:100B9000000000000088D3400000000000001C405E
:100BA000000000000000694046B6F3FDD478C93F5C
:100BB00000000000006AF840000000000080404093
:100BC0000000000000C072401D5A643BDF4FCD3F63
:100BD0000000000000007940A4703D0AD7A3D03F78
:100BE0000000000000003F400000000000407F4087
:100BF0008D976E1283C0D23F0000000000C082407B
:100C00007B14AE47E17AD43F0000000000003B4077
:100C10000000000000E0854011E0CDE906019DEDF7
:100C2000060B51EC100B23F0D3FDCDE908019DED2F
:100C3000080B51EC100B23F099FD0A90C5E10B98BD
:100C400024F036FA9FEDFE0B53EC102BCDE9080192
:100C50009DED080B51EC100B24F006F83CD20B98DC
:100C600024F026FA1FED1A0B53EC102BCDE90001EE
:100C70009DED000B51EC100B24F030F91FED340BFF
:100C800053EC102BCDE902019DED020B51EC100B42
:100C900024F026F81FED2E0B53EC102BCDE90401A8
:100CA0009DED040B51EC100B23F046FE9FEDE60B7F
:100CB00053EC102BCDE906019DED060B51EC100B0A
:100CC00023F086FDCDE908019DED080B51EC100BDA
:100CD00023F04CFD0A9078E10B9824F0E9F99FEDA0
:100CE000DC0B53EC102BCDE908019DED080B51EC0A
:100CF000100B23F0B9FF3CD20B9824F0D9F99FEDEB
:100D0000D00B53EC102BCDE900019DED000B51EC05
:100D1000100B24F0E3F81FED5A0B53EC102BCDE928
:100D200002019DED020B51EC100B23F0D9FF9FED5A
:100D3000CA0B53EC102BCDE904019DED040B51ECD3
:100D4000100B23F0F9FD9FEDC60B53EC102BCDE9F2
:100D500006019DED060B51EC100B23F039FDCDE99A
:100D600008019DED080B51EC100B23F0FFFC0A90DD
:100D70002BE10B9824F09CF99FEDBB0B53EC102B4F
:100D8000CDE908019DED080B51EC100B23F06CFF31
:100D90003CD20B9824F08CF99FEDAD0B53EC102B4B
:100DA000CDE900019DED000B51EC100B24F096F8FD
:100DB0009FEDAF0B53EC102BCDE902019DED020B23
:100DC00051EC100B23F08CFF9FEDAB0B53EC102B71
:100DD000CDE904019DED040B51EC100B23F0ACFDAB
:100DE0009FEDA70B53EC102BCDE906019DED060BF3
:100DF00051EC100B23F0ECFCCDE908019DED080B44
:100E000051EC100B23F0B2FC0A90DEE00B9824F0BA
:100E10004FF99FED9D0B53EC102BCDE908019DED93
:100E2000080B51EC100B23F01FFF30D20B9824F06D
:100E30003FF99FED8D0B53EC102BCDE902019DED99
:100E4000020B51EC100B24F049F89FED910B53EC81
:100E5000102BCDE904019DED040B51EC100B23F098
:100E60003FFF9FED8D0B53EC102BCDE906019DED5F
:100E7000060B51EC100B23F0ABFCCDE908019DED06
:100E8000080B51EC100B23F071FC0A909DE00B98BD
:100E900024F00EF99FED820B53EC102BCDE90801E5
:100EA0009DED080B51EC100B23F0DEFE3CD20B98AD
:100EB00024F0FEF89FED740B53EC102BCDE90001EC
:100EC0009DED000B51EC100B24F008F89FED760B14
:100ED00053EC102BCDE902019DED020B51EC100BF0
:100EE00023F0FEFE9FED720B53EC102BCDE90401B5
:100EF0009DED040B51EC100B23F01EFD9FED6E0BCE
:100F000053EC102BCDE906019DED060B51EC100BB7
:100F100023F05EFCCDE908019DED080B51EC100BB0
:100F200023F024FC0A9050E00B9824F0C1F89FEDC8
:100F3000640B53EC102BCDE908019DED080B51EC2F
:100F4000100B23F091FE3CD20B9824F0B1F89FEDEA
:100F5000540B53EC102BCDE900019DED000B51EC2F
:100F6000100B23F0BBFF1FEDEE0B53EC102BCDE964
:100F700002019DED020B51EC100B23F0B1FE9FED31
:100F8000520B53EC102BCDE904019DED040B51ECF9
:100F9000100B23F0D1FC9FED4E0B53EC102BCDE941
:100FA00006019DED060B51EC100B23F011FCCDE971
:100FB00008019DED080B51EC100B23F0D7FB0A90B4
:100FC00003E09FED450A8DED0A0A9DED0A0A0DB07A
:100FD00000BD30B52DED108B99B09FED400A8DED21
:100FE000180A9FED3F0AF0EE409A9FED3E0AB0EEE0
:100FF000408A9FED3D0AF0EE408A9FED3C0AB0EE3C
:1010000040AA9FED3B0A8DED170A9FED3A0A8DED40
:10101000130A394890ED000ADFED380A30EE200A55
:10102000B0EE409A90ED010AB1EE400ADFED340ACD
:1010300030EE200AF0EE40AA90ED050A62E00000D2
:10104000105839B4C876D63F00000000000089402F
:1010500052B81E85EB51D83F0000000000003D4013
:101060000000000000208C403108AC1C5A64DB3FBB
:1010700000000000006AC8400000000000000840B6
:101080000000000000408F4079E9263108ACDC3FC9
:10109000000000000088B3400000000000C0924043
:1010A00060E5D022DBF9DE3F00000000006AE84086
:1010B00000000000000022400000000000509440AA
:1010C000BE9F1A2FDD24E23F0000000000C0544004
:1010D0000000000000E095400000FA449A99494160
:1010E000000008429A990941F6A894420000B442CF
:1010F0005C8F624135FA8E3C680D002000009E42F4
:101100000000FC42B1EE400AF3EE040A30EE200A81
:101110008DED120A8DED149A39EE6A0A8DED150ADD
:1011200079EE6A0A9DED120A30EEC00A8DED160ABC
:10113000DDED140AB0EE600A23F084F810EE105AC8
:10114000284623F0B5FF41EC1B0B9FEDFE0A68EE2D
:10115000800A9DED180A20EE800A10EE101A08464B
:1011600023F0A6FF41EC1D0B9FEDF70B53EC102B6A
:1011700023F0B6FD41EC1C0B53EC1B2B23F0B0FD10
:10118000CDE90E01DDED140AB0EE600A23F05AF845
:1011900010EE105A284623F08BFF41EC1B0B28EE73
:1011A000A90A10EE101A084623F082FF41EC1C0B2E
:1011B0009FEDE50B53EC102B23F092FD41EC1D0B42
:1011C00053EC1B2B23F08CFDCDE90A01DDED150A54
:1011D000B0EE600A23F036F810EE105A284623F0DD
:1011E00067FF41EC1B0B9FEDD70A2AEE000A20EEA9
:1011F000290A10EE101A084623F05AFF41EC1D0B85
:101200009FEDD10B53EC102B23F06AFD41EC1C0B2E
:1012100053EC1B2B23F064FDCDE90601DDED160A2E
:10122000B0EE600A23F00EF810EE105A284623F0B4
:101230003FFF41EC1B0B9DED170ADFEDC20A20EECC
:10124000200A20EE080A10EE101A084623F030FF9C
:1012500041EC1D0B9FEDBC0B53EC102B23F040FD1C
:1012600041EC1C0B53EC1B2B23F03AFDCDE90201A2
:10127000DDED150AB0EE600A22F0E4FF10EE105A20
:10128000284623F015FF41EC1B0B2AEE080A10EE4E
:10129000101A084623F00CFF41EC1D0B9FEDAA0B22
:1012A00053EC102B23F01CFD41EC1C0B53EC1B2BBF
:1012B00023F016FD41EC1E0BDDED140AB0EE600AC2
:1012C00022F0C0FF10EE105A284623F0F1FE41EC48
:1012D0001B0B28EE880A10EE101A084623F0E8FED1
:1012E00041EC1C0B9FED980B53EC102B23F0F8FCFA
:1012F00041EC1D0B53EC1B2B23F0F2FC41EC1F0BBC
:1013000053EC1E2B23F064FACDE900019DED020B96
:1013100053EC102B9DED000B51EC100B23F058FA01
:10132000CDE904019DED060B53EC102B9DED040B54
:1013300051EC100B23F04CFACDE908019DED0A0B9E
:1013400053EC102B9DED080B51EC100B23F040FAE1
:10135000CDE90C019DED0E0B53EC102B9DED0C0B0C
:1013600051EC100B23F034FACDE910019DED100B78
:1013700051EC100B23F0FAF90446204623F098FEB6
:1013800041EC1C0B9FED720B53EC102B23F0A8FCCF
:1013900041EC1B0B23F0EAF900EE100A19B0BDEC8A
:1013A000108B30BD10B58AB00446022C4FD16A486C
:1013B000407B6949097BCDE900106748C37A827A8E
:1013C00066A102A821F07AFC02A810210B46D222C5
:1013D000CDE90010AA211E2005F0DDFE5E48407D0B
:1013E0005D49097DCDE900105B48C37C827C61A129
:1013F00002A821F063FC02A810210B46D222CDE9FD
:101400000010BE211E2005F0C6FE5348407C524904
:10141000097CCDE900105048C37B827B5BA102A808
:1014200021F04CFC02A810210B46D222CDE900107D
:1014300011461E2005F0AFFE5AA010210B46D22205
:10144000CDE90010E6211E2005F0A5FE4EE0424841
:10145000407B4149097BCDE900103F48C37A827A3D
:1014600053A102A821F02AFC02A810210B46D22287
:10147000CDE90010AA211E2005F08DFE3648407DE2
:101480003549097DCDE900103348C37C827C4EA1EB
:1014900002A821F013FC02A810210B46D222CDE9AC
:1014A0000010BE211E2005F076FE2B48407C2A4904
:1014B000097CCDE900102848C37B827B33A102A8B8
:1014C00021F0FCFB02A810210B46D222CDE900102E
:1014D00011461E2005F05FFE32A010210B46D222DD
:1014E000CDE90010E6211E2005F055FE0AB010BD22
:1014F0002DED108BC6B09FED3A0AB0EE408A00BFCA
:10150000B0EE040AF0EE40AA9FED0E0AF0EE408A1B
:101510009FED0C0AB0EE40DA9FED0A0AF0EE40DAD9
:10152000B2EE040A8DED240A9FED060A8DED230A22
:101530009FED040A10EE105A9FED020AF0EE409A59
:1015400050E00000000000009A9999999999234071
:10155000FCA9F1D24D62503FCC0E002044484350CC
:10156000204950203A25642E25642E25642E2564BA
:101570000000000044484350204757203A25642E7D
:1015800025642E25642E2564000000004E4554205D
:101590004D41534B3A25642E25642E25642E256437
:1015A00000000000506F72743A3830383921000062
:1015B0005374617469632049503A25642E25642E62
:1015C00025642E256400000053746174696320470C
:1015D000573A25642E25642E25642E2564000000CC
:1015E0000000C8431FED290A10EE106A1FED2B0AF8
:1015F0008DED220A00BFB2EE040A8DED210A9FEDA7
:10160000FD0A8DED200A9FEDFC0A8DED130AB2EE66
:10161000000A8DED120AB3EE060A8DED110A9DED5A
:10162000200AF7EE000A30EE600AB0EE402ADFED45
:10163000F31A9DED111ADDED120A9DED130A25A88E
:1016400007F008FB9FEDEE0B8DED140B9FEDEC0BFF
:101650008DED160B9FEDEA0B8DED180B9FEDE80B52
:101660008DED1A0B9FEDE60B8DED1C0B9FEDE40B42
:101670008DED1E0B95E2E4492EA807F0F1FC142134
:10168000052009F0C9FE04469DED210AB7EE001AB7
:10169000C1EE000AC4F5805000EE100AB8EEC00A90
:1016A00060EE800A00EE104AB8EE400A80EE809AA2
:1016B000B0EE490AFEF7FAFD10EE107A384623F034
:1016C000F7FC41EC1C0B9FEDD10B53EC102B23F0DE
:1016D00007FB41EC1B0B23F049F80AEE100AB5EEAC
:1016E000C0AAF1EE10FA03D21FED6A0AB0EE40AACA
:1016F000C54890ED050A10EE101A084623F0D8FCF4
:1017000041EC1E0BC04890ED040A10EE101A08467A
:1017100023F0CEFC41EC1F0BBB4890ED030A10EE0A
:10172000101A084623F0C4FCCDE90E01B64890ED2E
:10173000020A10EE101A084623F0BAFC41EC1B0B0B
:10174000B14890ED010A10EE101A084623F0B0FCE3
:1017500041EC1C0BAC4890ED000A10EE101A084644
:1017600023F0A6FCCDE90C018DED08EB8DED06FB19
:101770009DED0E0B8DED040B8DED02BB8DED00CBC1
:101780009DED0C0B53EC102BA2A021F08BFAAF486F
:1017900090ED050A10EE101A084623F089FC41EC82
:1017A0001B0BAA4890ED040A10EE101A084623F00D
:1017B0007FFC41EC1C0BA54890ED030A10EE101ABB
:1017C000084623F075FC41EC1E0BA04890ED020A80
:1017D00010EE101A084623F06BFC41EC1F0B9B48DF
:1017E00090ED010A10EE101A084623F061FCCDE9D5
:1017F0000E01964890ED000A10EE101A084623F0EC
:1018000057FCCDE90C018DED08BB8DED06CB8DEDC0
:1018100004EB8DED02FB9DED0E0B8DED000B9DEDB0
:101820000C0B53EC102B8A4821F03CFA00201021BD
:101830000323BCEEC90A10EE102ACDE900104FF4C4
:10184000C3716E2005F039FC9DED440B8DED020B4C
:101850009DED3C0B8DED000B9DED341BB0EE410A70
:10186000F0EE610A53EC102B7AA021F01BFA9DEDEB
:10187000420B8DED0E0B9DED400B8DED0C0B9DED98
:101880003E0B8DED0A0B9DED3A0B8DED080B9DED9A
:10189000380B8DED060B9DED360B8DED040B9DED9C
:1018A000320B8DED020B9DED300B8DED000B9DEDA0
:1018B0002E1BB0EE410AF0EE610A53EC102B6CA027
:1018C00021F0F0F919EE100A23F0F2FB41EC1B0BAA
:1018D00053EC1B2B72A021F0E5F974A021F0E2F982
:1018E0001AEE100A23F0E4FB41EC1B0B53EC1B2B0C
:1018F00079A021F0D7F97DA021F0D4F93AEECA0AF7
:10190000F0EE408A3DEE280AB0EE40DA9DED220A64
:1019100078EEC00A9DED230A20EE800A10EE106AD0
:101920002DEEA80A10EE105A9DED240A20EE0D0AA5
:10193000F0EE409A9FED780AF4EEC09AF1EE10FABC
:1019400004DD9FED750AF0EE409A0AE09FED730A00
:10195000F4EEC09AF1EE10FA03D29FED700AF0EEA9
:10196000409ACDED228A002000F09FFD032805D18A
:101970009FED6B0A38EE400AB0EE408A1AEE900AEC
:1019800023F096FB41EC1B0B18EE100A23F090FBA2
:1019900041EC1C0B8DED00BB53EC1C2B61A021F026
:1019A00081F9304623F084FB41EC1B0B19EE900AC1
:1019B00023F07EFB41EC1C0B284623F079FB41EC25
:1019C0001E0B8DED02BB8DED00CB53EC1E2B5DA0ED
:1019D00021F068F9B5EEC08AF1EE10FA08DB40217B
:1019E000624809F0C7FE8021604809F0C5FECBE0DF
:1019F000BEE0000000401C4600009143003C1C4635
:101A00000000000000000000680D00207B14AE47BD
:101A1000E17A843F2061313D252E34663B61323DC1
:101A2000252E34663B61333D252E34663B0A20610A
:101A3000343D252E34663B61353D252E34663B61B1
:101A400036203D20252E34663B0A0000080D00207C
:101A50007C6C0208706F736974696F6E3A20252E72
:101A600034662C20252E34662C20252E34660A0060
:101A7000252E34662C252E34662C252E34660A2518
:101A80002E34662C252E34662C252E34660A252EFF
:101A900034662C252E34662C252E34660A00000070
:101AA000525F523A20252E34660A0A002A2A2A2A30
:101AB0002A2A2A2A2A2A2A2A2A6469766973696FB5
:101AC0006E206C696E65202A2A2A2A2A2A2A2A2A46
:101AD0002A2A2A2A0A0A0000666F7263655F736504
:101AE0006E3A20252E346620404E0A002A2A2A2AE1
:101AF0002A2A2A2A2A2A2A2A2A2A2A2A2A2A2A2A46
:101B00002A2A2A2A2A2A2A2A2A2A2A2A2A2A2A2A35
:101B10002A2A2A2A0A0A00000000FA430000C8C341
:101B2000000048426F75747075743A20252E346633
:101B30002C6465735F6F7574203D20252E34660A12
:101B4000000000006F7574703A20252E34662C203A
:101B50006F75745F69203D20252E34662C6F757477
:101B60005F64203D20252E34660A000000140240E8
:101B70004021F44809F000FE8021F24809F0FAFD06
:101B8000B1EE480AB0EE408ABDEEC80A10EE101A57
:101B9000ED480AF04AFC052300221146104620F0C9
:101BA00027FA68E510E0E948807D30B1E749887D93
:101BB000FFF7F8FBFF2020F021F94FF4FA73002221
:101BC0001146104620F014FAEDE711E0002000F075
:101BD0006CFC0446012C05D1DD48007840F0800003
:101BE000DB4908700A2300221146104620F000FA53
:101BF000ECE72DED068B82B01F20D6490880D6A0D9
:101C000010210B46C822CDE900104FF4AF711E2001
:101C100005F0C1FAD4A010210B46C822CDE900106E
:101C20004FF4B9711E2005F0B6FAD4A010210B466E
:101C3000C822CDE900104FF4C3711E2005F0ABFAA5
:101C40005FE01421052009F0E7FB04460020102185
:101C500004232246CDE900104FF4AF71862005F031
:101C60002CFA00EE104AB8EE400A10EE100A23F0EB
:101C70001FFA41EC1A0B9FEDC40B53EC102B23F011
:101C80002FF841EC190B22F071FD08EE100ABCEEA2
:101C9000C80A10EE100A84B2002010210123224647
:101CA000CDE900104FF4B971862005F006FA00EE78
:101CB000104AB8EE400A38EE400AB0EE408A9FED76
:101CC000B40A28EE000AB0EE408A802010210323D7
:101CD000BCEEC80A10EE102ACDE900104FF4B9711D
:101CE000962005F0EAF9AB48006808B9012000E049
:101CF0000020A8490860FA2300221146104620F06F
:101D000077F99EE770B5044600BF1EF093F920F006
:101D100041FE05460EF021F909239F4A0021AFF24A
:101D20002D101FF0EBFD07239C4A0021AFF2651038
:101D30001FF0E4FD0A239A4A0021AFF297101FF02A
:101D4000DDFD0823974A0021AFF65B001FF0D6FDAA
:101D5000FF2020F053F8284620F020FE70BD1CB56F
:101D6000A8200CF093FD4FF4A06009F091FB4FF414
:101D7000E1300CF013FE8C4841685420884700F095
:101D8000FFFA01F0BAFA05F053FD532140F2F310C7
:101D900007F0DCF8532140F2F31007F009F8642152
:101DA00082480AF042FB09F0E3FA05F0EFFB00205D
:101DB00020F06BFE012020F068FE022020F065FE7E
:101DC0004FF478406349088079A010211423C82279
:101DD000CDE900101E21084605F0DDF979A010219B
:101DE0001423C822CDE9001032211E2005F0D3F9BA
:101DF00079A010211423C822CDE9001046211E200D
:101E000005F0C9F978A010211423C822CDE90010EB
:101E10005A211E2005F0BFF978A010211423C822F2
:101E2000CDE900106E211E2005F0B5F91F204949AB
:101E300008801DF0C1FF1AE077A010211423C822EA
:101E4000CDE9001082211E2005F0A5F94FF4FA70AB
:101E50000CF06DFD4FF6FF709623E6228221009074
:101E60001E2004F0FEFE4FF4FA700CF060FD0DF041
:101E700062FF0028E0D16DA010211423C822CDE913
:101E8000001082211E2005F086F91AE06CA01021B6
:101E90001423C822CDE9001096211E2005F07BF9FD
:101EA0004FF4FA700CF043FD4FF6FF70AA23E622C0
:101EB000962100901E2004F0D4FE4FF4FA700CF02E
:101EC00036FD0EF0C2F90028E0D164A010211423E1
:101ED000C822CDE9001096211E2005F05CF90020F3
:101EE0001C49088064A0102128234FF49672CDE984
:101EF0000010FA211E2005F04EF968A010212823B9
:101F00004FF49672CDE900104FF487711E2005F052
:101F100042F967A0102114234FF49672CDE9001006
:101F20004FF491711E2005F036F96AA01021142398
:101F30004FF4C872CDE900104FF49B711E2005F0DC
:101F40002AF9DBE00014024000200040CC0E002003
:101F5000E001002016000020414443315F43483532
:101F60005F56414C683A0000414443315F43483575
:101F70005F564F4C3A302E3030305600666F7263E9
:101F8000655F73656E3A00006666666666664A3F20
:101F900000007A44A4824242AC060020AC05002036
:101FA000AC080020AC0C0020E00000200004004041
:101FB0004578706C6F7265722053544D33324634DD
:101FC000303700004F70656E696E672048616E643F
:101FD00045786F2E2E2E000041544F4D40414C4904
:101FE000454E54454B00000053755975616E2032C3
:101FF0003032322F31302F313800000041646472AA
:102000006573732F506F727420496E666F726D61C5
:1020100074696F6E3A0000004C77697020496E69F0
:1020200074206661696C6564210000004C776970FA
:1020300020496E69742053756363657373210000D2
:1020400043726561746564205544502074687265FC
:102050006164206661696C20210000004372656143
:1020600074656420554450207468726561642073FF
:102070007563636573732100417574686F723A20EC
:102080005975616E5375287975616E5F737565401A
:10209000796561682E6E657429000000446174657D
:1020A0003A20323032322D31302D303100000000F4
:1020B00050726F6A6563743A2048616E6445786F48
:1020C00020666F722074656C65726F626F746963ED
:1020D000730000005468616E6B7320746F205A7532
:1020E0007169616E67205975616E20616E64204769
:1020F000616F66656E67204C690000000BA01021BF
:1021000014234FF4C872CDE900104FF4A5711E20BE
:1021100005F041F80B23104A0021AFF217401FF0E1
:10212000EDFB1DF06FFF00201CBD0000666F7220EC
:10213000746865697220636F6E7472696275746920
:102140006F6E7320746F20746869732070726F6A89
:102150006563742100000000AC0A0020704700BFD6
:10216000FEE700BFFEE700BFFEE700BFFEE77047E7
:102170000CB50020019000907648006840F4803053
:102180007449086000BF7348006800F40030009094
:102190000198401C0190009818B90198B0F5A04F23
:1021A000F1D16C48006800F4003010B101200090BB
:1021B00001E0002000900098012846D16548403099
:1021C000006840F080506349403108606248006810
:1021D00040F44040604908605E48083000685D494E
:1021E000083108600846006840F40040086008466E
:1021F000006840F4A05008605848091F0860081F94
:10220000006840F08070091F086000BF51480068F6
:1022100000F000700028F9D040F2057050490860C5
:102220004C480830006820F003004A490831086033
:102230000846006840F00200086000BF45480830CA
:10224000006800F00C000828F8D10CBD10B5454816
:10225000006840F47000434908603E48006840F060
:1022600001003C49086000203A49083108603948BB
:1022700000683D490840374908603C48091D08602E
:10228000081F006820F48020091F086000203149E1
:102290000C310860FFF76CFF4FF000603149803966
:1022A000086010BD70B50020002202230024022126
:1022B000284D08352D6805F00C0020B1042806D003
:1022C000082834D107E02A4D2A4E356033E02A4DE4
:1022D000284E35602FE01F4D2D1D2D68C5F380540D
:1022E0001C4D2D1D2D6805F03F0154B1224DB5FB4D
:1022F000F1F5184E361D3668C6F3881605FB06F252
:1023000009E01B4DB5FBF1F5124E361D3668C6F3DC
:10231000881605FB06F20F4D2D1D2D68C5F30145EE
:102320006D1C6B00B2FBF3F5124E356003E0104DEF
:10233000104E356000BF00BF064D08352D68C5F34F
:1023400003150E4E705D0B4D2D68C540094E35606E
:1023500070BD000000380240007000400854400783
:10236000003C024088ED00E0FFFFF6FE1030002444
:102370000024F4000000002000127A000400002075
:102380001CB50121202009F017FC4FF4C06000901B
:1023900001208DF8040000208DF806008DF807005C
:1023A00003208DF805006946144809F067F94FF4D9
:1023B000C061124809F0DEF91CBD60B911B10129F4
:1023C00008D103E001220E4B1A6003E000220C4BFF
:1023D0001A6000BF10E001280ED111B101290AD105
:1023E00004E00122064B1B1D1A6004E00022044B8E
:1023F0001B1D1A6000BF00BF7047000000140240A0
:10240000A48242427FB504460D460121022009F014
:102410001CFCADF804500020ADF806000294ADF8A5
:102420000C0001A9124809F012FE012211461048C1
:102430000AF0AEFA01210E4809F092FE1D208DF837
:10244000000001208DF8010003208DF8020001201A
:102450008DF80300684609F020F87FBD10B5012112
:1024600003480AF0ACFA012101480AF0B9FA10BD9C
:10247000000400401CB50121112009F09DFB1C2027
:10248000009000208DF8040001208DF807006946B7
:102490002B4809F0F3F80120009002208DF8070086
:1024A0006946284809F0EAF81CBD10B5044614B185
:1024B0000120254908702448007858B32348006853
:1024C00058B12248001F006838B120480838006819
:1024D00018B11F48006801281CD10A200CF027FA07
:1024E0000020194908701948006808B9012010BD7A
:1024F0001648001F006808B90220F8E7134808389A
:10250000006808B90320F2E711480068012815D1D6
:102510000420ECE70D48006801280FD10B48001F8C
:10252000006801280AD1094808380068012805D147
:102530000748006810B90120034908700020D6E759
:10254000001002400000024014000020100242422D
:102550000002404201B5BDF800000090BDF8000047
:10256000FC49088008BD01B5BDF800000090BDF829
:102570000000F849891C088008BD08B5F548801C92
:1025800000880090BDF8000008BD03B5BDF800004C
:10259000F0490880BDF804004FF0D841A1F8800050
:1025A0000CBD01B5BDF80000FFF7D4FF05200CF00D
:1025B00093F9FFF7E2FF08BDE7480089E549088085
:1025C0007047E449891C0880704730B5014601F026
:1025D0001F04C1F34513CA0AE50205EB4315154470
:1025E000A8B230BD00BF011EA0F10102D0B2FAD1E5
:1025F000704730B504460D46D748808849F24131CE
:10260000884205D0D448808845F21031884214D1E0
:10261000D1494889FFF79EFF2012FFF7A4FFE0B2DF
:10262000FFF7A1FFCC498889FFF794FF2812FFF735
:102630009AFFE8B2FFF797FFABE0C748808846F6FD
:10264000040188421DD1C4488079012804D1C248C0
:102650000088401E001B84B2BF494889FFF77AFFFB
:102660002012FFF780FFE0B2FFF77DFFBA498889AB
:10267000FFF770FF2812FFF776FFE8B2FFF773FF4E
:1026800087E0B548808841F66311884247D1B24857
:102690008079A8B9B0480088401E001B84B2AE49BA
:1026A0004889FFF757FF0020FFF75DFF0020FFF785
:1026B0005AFF2012FFF757FFE0B2FFF754FF16E072
:1026C000A5494889FFF746FF2012FFF74CFFE0B20B
:1026D000FFF749FFA0490988491EC1F30F20FFF702
:1026E00042FF9D490978491EC8B2FFF73CFF9A494D
:1026F0008889FFF72FFF2812FFF735FFE8B2FFF7B1
:1027000032FF95494988491EC1F30F20FFF72BFF7F
:1027100091498978491EC8B2FFF725FF39E08E48F4
:10272000808845F21051884220D18B494889FFF7B3
:1027300011FF2012FFF717FF87494989491C88B20A
:10274000FFF708FFE0B2FFF70EFF83498889FFF724
:1027500001FF2812FFF707FF7F498989491C88B2CA
:10276000FFF7F8FEE8B2FFF7FEFE12E07A48807944
:10277000012804D178480088401E001B84B27649A5
:1027800048892146FFF701FF734988892946FFF7E9
:10279000FCFE30BD3EB504460D460020029001907F
:1027A00000906D480088A04203DD6B484088A84235
:1027B00001DC00203EBD29462046FFF71AFF66488F
:1027C000808849F24131884211D06348808846F6BA
:1027D000040188420BD06048808845F2103188425D
:1027E00005D05D48808841F66311884203D12E20D0
:1027F000FFF7B0FE0DE05848808845F2105188423E
:1028000004D14FF43850FFF7A5FE02E02220FFF775
:10281000A1FE5148808849F22031884202D102202D
:10282000FFF7E0FEFFF7A9FE02904B48808841F6D3
:102830006311884202D1BDF80800BBE70220FFF710
:10284000D1FEFFF79AFE02904348808849F2413159
:1028500088420BD04048808845F21031884205D02C
:102860003D48808845F21051884210D10220FFF780
:10287000B9FEFFF782FE0090BDF80800C0B20190DB
:10288000BDF804004FF6FF7101EA002001903248C4
:10289000808849F22531884216D02F48808844F23A
:1028A0003551884210D02C488088091F88420BD0AF
:1028B000294880884BF20551884205D026488088F7
:1028C0004CF20551884202D1BDF8080072E7224857
:1028D000808849F2413188420BD01F48808845F2F8
:1028E0001031884205D01C48808845F2105188423A
:1028F0000DD1BDF80800C012C002BDF80410891245
:1029000040EA4110BDF8001040EAE12052E7BDF86E
:102910000800FFF75AFE4DE700B50F48808849F2DE
:102920004131884211D00C48808846F60401884223
:102930000BD00948808845F21031884205D00648FE
:10294000808841F66311884208D12920FFF702FEF2
:1029500014E000007E00006CB00C0020FE4880886F
:1029600045F21051884204D14FF42450FFF7F2FD94
:1029700004E040F273110720FFF707FE00BD00B529
:10298000F548808849F24131884211D0F248808868
:1029900046F6040188420BD0EF48808845F210319A
:1029A000884205D0EC48808841F66311884203D103
:1029B0002820FFF7CFFD0EE0E748808845F2105150
:1029C000884204D14FF42050FFF7C4FD03E00021FA
:1029D0000720FFF7DAFD00BDF0B50546002400270B
:1029E000DD48807901280BD1DB48808846F6040158
:1029F000884205D0D848808841F66311884208D1C2
:102A0000D5488079F0B9D448808841F6631188426E
:102A100018D1082D15D2DFE805F00406080A0C0EBF
:102A2000101206250DE007250BE0042509E0052519
:102A300007E0012505E0002503E0032501E002256C
:102A400000BF00BFC448808849F24131884217D096
:102A5000C148808846F60401884211D0BE4880886B
:102A600045F2103188420BD0BB48808845F21051A6
:102A7000884205D0B848808841F6631188427DD1EC
:102A8000082D1CD2DFE805F00406090C0F121518FA
:102A900000BF14E044F0800411E044F040040EE074
:102AA00044F0C0040BE044F0200408E044F060046B
:102AB00005E044F0A00402E044F0E00400BF00BFE1
:102AC000A548808845F21051884202D14FF45857EA
:102AD00000E03627A048808845F2103188420DD0AA
:102AE0009D48808845F21051884207D09A488088D6
:102AF00041F66311884201D044F00804964880886A
:102B000046F60401884201D144F0020421463846C9
:102B1000FFF73BFD9048808841F6631188421DD045
:102B200004F0200068B18C4800888B4949888842AD
:102B300014DA894806884088874908800846468014
:102B40000CE08548008884494988884206DD82482F
:102B50000688408880490880084646807E488088EC
:102B600045F21051884254D17B494889FFF7F2FC65
:102B70000020FFF7F8FC7849498900E078E0491C1B
:102B800088B2FFF7E7FC0020FFF7EDFC72494989A6
:102B9000891C88B2FFF7DEFC6F490988491EC1F322
:102BA0000F20FFF7E0FC6C494989C91C88B2FFF788
:102BB000D1FC69490978491EC8B2FFF7D4FC6649BF
:102BC0008889FFF7C7FC0020FFF7CDFC624989899F
:102BD000491C88B2FFF7BEFC0020FFF7C4FC5E4929
:102BE0008989891C88B2FFF7B5FC5B494988491E71
:102BF000C1F30F20FFF7B7FC57498989C91C88B278
:102C0000FFF7A8FC54498978491EC8B2FFF7ABFC0E
:102C100055E051494889FFF79DFC0020FFF7A3FCD0
:102C20000020FFF7A0FC4C490988491EC1F30F2082
:102C3000FFF799FC48490978491EC8B2FFF793FC91
:102C400045498889FFF786FC0020FFF78CFC0020AF
:102C5000FFF789FC40494988491EC1F30F20FFF75F
:102C600082FC3D498978491EC8B2FFF77CFC26E00A
:102C7000082D1CD2DFE805F004070A0D0F12151805
:102C800044F0300413E044F0100410E044F0200459
:102C90000DE000BF0BE044F0380408E044F02804E5
:102CA00005E044F0180402E044F0080400BF00BF4F
:102CB000032744F4805421463846FFF766FCF0BDF4
:102CC00030B504460D4629462046FFF792FCFFF733
:102CD00073FC224800882249088030BD70B5044644
:102CE0000D4616461C48808849F24131884205D07D
:102CF0001948808845F21031884214D11649488914
:102D0000FFF728FC2012FFF72EFCE0B2FFF72BFCA8
:102D100011498889FFF71EFC2812FFF724FCE8B24E
:102D2000FFF721FC93E00C48808845F2105188425F
:102D300027D109494889FFF70DFC2012FFF713FC42
:102D400005494989491C88B2FFF704FCE0B2FFF746
:102D50000AFC0149888905E0B00C0020160000201B
:102D60008000006CFFF7F6FB2812FFF7FCFBFE4922
:102D70008989491C88B2FFF7EDFBE8B2FFF7F3FB46
:102D800065E0F948808841F66311884228D1F64809
:102D9000807920B9F4480088401E001B84B2F249B3
:102DA0004889FFF7D7FB2012FFF7DDFBE0B2FFF702
:102DB000DAFB2012FFF7D7FBE0B2FFF7D4FBEA49BA
:102DC0008889FFF7C7FB2812FFF7CDFBE8B2FFF7B2
:102DD000CAFB2812FFF7C7FBE8B2FFF7C4FB36E0D7
:102DE000E148808846F6040188421DD1DE4880799A
:102DF000012804D1DC480088401E001B84B2DA4957
:102E00004889FFF7A7FB2012FFF7ADFBE0B2FFF701
:102E1000AAFBD5498889FFF79DFB2812FFF7A3FB82
:102E2000E8B2FFF7A0FB12E0CF488079012804D177
:102E3000CD480088401E001B84B2CB4948892146FA
:102E4000FFF7A3FBC84988892946FFF79EFBC648C0
:102E50000089C64908804FF0D840A0F8806070BD56
:102E600070B52DED048B0446BE20FFF773FB0520E3
:102E7000FFF779FB204621F0E4FE41EC190B9FEDB2
:102E8000BC0B53EC102B21F02BFF41EC180B21F065
:102E9000ABFE85B22846FFF766FB0120FFF763FB18
:102EA000FF20FFF760FB0020FFF75DFB0020FFF72E
:102EB0005AFBBDEC048B70BD10B50446002C66D1E6
:102EC000A9498871F02008804FF4A0704880084616
:102ED000808849F2413188420BD0A348808846F669
:102EE0000401884205D0A048808845F2103188420C
:102EF0001AD12C209C4908812A2048812B208881C6
:102F00000846808846F60401884205D096488088A5
:102F100045F21031884206D14FF4A07092490880E2
:102F20004FF4F0704880A1E08F48808845F210513E
:102F3000884210D14FF430508B4908814FF428500B
:102F400048814FF42C5088814FF4F07008804FF482
:102F5000487048808AE08448808841F6631188423E
:102F60000DD12C20804908812B2048812A2088817E
:102F70004FF4F07008804FF44870488076E02220CB
:102F80007949088120204881212088816EE0012034
:102F9000754988714FF4A0700880F0204880084679
:102FA000808849F24131884205D06F48808845F2D7
:102FB0001031884207D12C206B4908812A20488192
:102FC0002B2088813FE06848808846F604018842CB
:102FD00007D12C20644908812B2048812A20888130
:102FE00031E06148808845F21051884210D14FF499
:102FF00030505D4908814FF4285048814FF42C50DF
:1030000088814FF4487008804FF4F07048801AE0CF
:103010005548808841F6631188420DD12C205249D1
:1030200008812A2048812B2088814FF4487008802D
:103030004FF4F070488006E022204B49088121209F
:103040004881202088814848808846F604018842CB
:1030500005D04548808845F21031884206D14FF4AA
:10306000F070414908804FF4A07048800020FFF7BD
:10307000B3FC10BD2DE9F04F86B004460D469046D6
:10308000994604EB0800401E86B205EB0900401E7D
:1030900087B23548808849F24131884215D032489C
:1030A000808845F2103188420FD02F48808846F63C
:1030B0000401884209D02C488079012826D12A4869
:1030C000808841F66311884220D127494889FFF75B
:1030D00041FA2012FFF747FAE0B2FFF744FA301244
:1030E000FFF741FAF0B2FFF73EFA1F498889FFF770
:1030F00031FA2812FFF737FAE8B2FFF734FA38123C
:10310000FFF731FAF8B2FFF72EFAC1E016488088CF
:1031100041F6631188423DD113480088A0EB0800B6
:10312000001B84B205EB0900401E1FFA80F90E490E
:103130004889FFF70FFA2012FFF715FAE0B2FFF700
:1031400012FA04EB0801491EC1F30F20FFF70BFA36
:1031500004EB0801491EC8B2FFF705FA0249888945
:10316000FFF7F8F9281207E0B00C00207E00006C91
:103170006666666666660440FFF7F5F9E8B2FFF733
:10318000F2F94FEA2920FFF7EEF909F0FF00FFF707
:10319000EAF97DE0FE48808845F21051884244D12A
:1031A000FB494889FFF7D6F92012FFF7DCF9F84907
:1031B0004989491C88B2FFF7CDF9E0B2FFF7D3F98E
:1031C000F3494989891C88B2FFF7C4F93012FFF727
:1031D000CAF9EF494989C91C88B2FFF7BBF9F0B2B7
:1031E000FFF7C1F9EA498889FFF7B4F92812FFF718
:1031F000BAF9E7498989491C88B2FFF7ABF9E8B207
:10320000FFF7B1F9E2498989891C88B2FFF7A2F971
:103210003812FFF7A8F9DE498989C91C88B2FFF77F
:1032200099F9F8B2FFF79FF932E0D948807901287F
:103230000ED1AA46BB46D6480088801B401E80B2ED
:103240000190D3480088001B401E80B2009003E02C
:10325000A246B34601950097502005905120049056
:10326000522003905320029051460598FFF78DF9A4
:1032700059460498FFF789F901990398FFF785F9F2
:1032800000990298FFF781F929462046FFF7B1F926
:1032900006B0BDE8F08F70B504460026BC4805882E
:1032A00040884543BA48808846F60401884216D1D2
:1032B000B7488079012812D10020B54988712A20A9
:1032C00048812B20888100210846FFF792F90120D0
:1032D000AF4988712B2048812A20888103E0002192
:1032E0000846FFF786F9FFF767F9002602E0A948CC
:1032F0000480761CAE42FAD370BD00B5A1B00020A8
:10330000209001217A2008F057FC0121084608F09E
:103310008BFC4FF400401E9001208DF87C000020B3
:103320008DF87E0002208DF87D0001208DF87F0051
:103330001EA9994808F0A2F94CF233701E900220A1
:103340008DF87C0000208DF87E0003208DF87D0034
:1033500001208DF87F001EA9904808F08FF94FF6E4
:1033600080701E9002208DF87C0000208DF87E0079
:1033700003208DF87D0001208DF87F001EA988486C
:1033800008F07CF94FF480501E9002208DF87C00EC
:1033900000208DF87E0003208DF87D0001208DF83F
:1033A0007F001EA97F4808F069F94FF480501E90F5
:1033B00002208DF87C0000208DF87E0003208DF81F
:1033C0007D0001208DF87F001EA9774808F056F98E
:1033D0000C220021714808F0DCF90C2201216F4811
:1033E00008F0D7F90C2204216C4808F0D2F90C221D
:1033F00005216A4808F0CDF90C220821674808F039
:10340000C8F90C220921654808F0C3F90C220A21E9
:10341000624808F0BEF90C220E21604808F0B9F9A4
:103420000C220F215D4808F0B4F90C2207215C48FA
:1034300008F0AFF90C220821594808F0AAF90C222B
:103440000921574808F0A5F90C220A21544808F030
:10345000A0F90C220B21524808F09BF90C221146CE
:103460004F4808F096F90C220D214D4808F091F9CB
:103470000C220E214A4808F08CF90C220F214848F2
:1034800008F087F90C221146464808F082F90C2210
:103490001146454808F07DF90F200890002009905A
:1034A0003C200A9000200B900C900D900E9009206B
:1034B00001900020029008200390002004900590C5
:1034C0000690079006200F90002010901190102079
:1034D00012900020139015901490169017904FF4AE
:1034E00080501890002019904FF480401A900020CE
:1034F0001B9008A81C9001A81D900FA80AF0E3FEDD
:10350000012106200AF06AFF32200BF010FA012197
:103510000020FFF73AF832200BF009FA0020FFF7FD
:1035200040F81B49888008468088FF280ADB084647
:1035300080884FF6FF71884204D015488088B0F526
:10354000134F7DD1D320FFF705F8FFF716F8104988
:103550008880FFF712F80E498880FFF70EF80C49B3
:103560008880084680884FF6FF7101EA00200849EC
:103570008880FFF702F80649898808430449888053
:103580000846808849F24131884259D0BF200DE079
:10359000B00C00208000006C00040240000C0240CF
:1035A000001002400014024000180240FEF7D2FF53
:1035B000FEF7E3FFFE498880FEF7DFFFFC498880C5
:1035C000FEF7DBFFFA498880FEF7D7FFF8498880CD
:1035D000084680884FF6FF7101EA0020F449888090
:1035E000FEF7CBFFF24989880843F14988800846F5
:1035F000808846F6040188427AD0D420FEF7AAFFDC
:10360000FEF7BBFFEA498880FEF7B7FFE8498880EC
:10361000FEF7B3FFE6498880084680884FF6FF71C1
:1036200001EA0020E2498880FEF7A7FFE049898887
:103630000843DF4988800846808845F2103100E061
:1036400056E0884254D04FF45A40FEF783FFFEF70D
:1036500094FFD74988804FF45B40FEF77BFFFEF76D
:103660008CFFD3498880084680884FF6FF7101EAB5
:103670000020CF4988804FF45C40FEF76BFFFEF7D7
:103680007CFFCB4989880843C949888008468088DF
:10369000B0F5004F02D145F210508880C4488088B0
:1036A00045F21051884223D0A120FEF753FFFEF7C8
:1036B00064FFBF498880FEF760FFBD4988800846E7
:1036C00080884FF6FF7101EA0020B9498880FEF733
:1036D00054FFB74989880843B549888008468088DF
:1036E00045F26171884203D141F66310B049888088
:1036F000AF48808849F24131884211D0AC48808877
:1037000045F2103188420BD0A948808845F210510B
:10371000884205D0A648808841F6631188421DD1B1
:10372000A448006820F00F004FF02041C1F81C01B0
:103730000846D0F81C0120F47060C1F81C0108464E
:10374000D0F81C0140F00300C1F81C010846D0F875
:103750001C0140F40070C1F81C0128E094488088E6
:1037600046F60401884205D0914880884CF2055104
:1037700088421CD18F48006820F00F004FF0204194
:10378000C1F81C010846D0F81C0120F47060C1F893
:103790001C010846D0F81C0140F00A00C1F81C01C9
:1037A0000846D0F81C0140F44060C1F81C01804874
:1037B000818881A01FF076FA7D48808849F24131E6
:1037C00088427CD1CF20FEF7C5FE0020FEF7CBFE5D
:1037D0002098401C2090C120FEF7C5FE3020FEF747
:1037E000C2FEED20FEF7B6FE6420FEF7BCFE03200D
:1037F000FEF7B9FE1220FEF7B6FE8120FEF7B3FEFB
:10380000E820FEF7A7FE8520FEF7ADFE1020FEF7AC
:10381000AAFE7A20FEF7A7FECB20FEF79BFE3920FA
:10382000FEF7A1FE2C20FEF79EFE0020FEF79BFE79
:103830003420FEF798FE0220FEF795FEF720FEF7F3
:1038400089FE2020FEF78FFEEA20FEF783FE00208F
:10385000FEF789FE0020FEF786FEC020FEF77AFE06
:103860001B20FEF780FEC120FEF774FE0120FEF74C
:103870007AFEC520FEF76EFE3020FEF774FE302083
:10388000FEF771FEC720FEF765FEB720FEF76BFE60
:103890003620FEF75FFE4820FEF765FE3A20FEF771
:1038A00059FE5520FEF75FFEB120FEF753FE0020C3
:1038B000FEF759FE1A20FEF756FEB62000E0A7E0FC
:1038C000FEF748FE0A20FEF74EFEA220FEF74BFE52
:1038D000F220FEF73FFE0020FEF745FE2620FEF711
:1038E00039FE0120FEF73FFEE020FEF733FE0F20F9
:1038F000FEF739FE2A20FEF736FE2820FEF733FEBB
:103900000820FEF730FE0E20FEF72DFE0820FEF701
:103910002AFE5420FEF727FEA920FEF724FE4320AE
:10392000FEF721FE0A20FEF71EFE0F20FEF71BFE0B
:103930000020FEF718FE0020FEF715FE0020FEF71F
:1039400012FE0020FEF70FFEE120FEF703FE00202E
:10395000FEF709FE1520FEF706FE1720FEF703FE10
:103960000720FEF700FE1120FEF7FDFD0620FEF702
:10397000FAFD2B20FEF7F7FD5620FEF7F4FD3C2064
:10398000FEF7F1FD0520FEF7EEFD1020FEF7EBFD42
:103990000F20FEF7E8FD3F20FEF7E5FD3F20FEF794
:1039A000E2FD0F20FEF7DFFD2B20FEF7D3FD09E03F
:1039B000B00C00201C0100A04C43442049443A258F
:1039C000780D0A000020FEF7CEFD0020FEF7CBFDAB
:1039D0000120FEF7C8FD3F20FEF7C5FD2A20FEF7B7
:1039E000B9FD0020FEF7BFFD0020FEF7BCFD002062
:1039F000FEF7B9FDEF20FEF7B6FD1120FEF7AAFD98
:103A000078200AF094FF2920FEF7A4FD03F01DB9E9
:103A1000FE48808846F6040188427CD11120FEF7DA
:103A200099FD14200AF083FFD020FEF793FD0720B4
:103A3000FEF799FD4220FEF796FD1D20FEF793FD4F
:103A4000D120FEF787FD0020FEF78DFD1A20FEF73E
:103A50008AFD0920FEF787FDD220FEF77BFD0120BD
:103A6000FEF781FD2220FEF77EFDC020FEF772FDED
:103A70001020FEF778FD3B20FEF775FD0020FEF7D5
:103A800072FD0220FEF76FFD1120FEF76CFDC520D0
:103A9000FEF760FD0320FEF766FDC820FEF75AFD25
:103AA0000020FEF760FD2520FEF75DFD2120FEF7DA
:103AB0005AFD0520FEF757FD0020FEF754FD0A20B1
:103AC000FEF751FD6520FEF74EFD2520FEF74BFD6C
:103AD0007720FEF748FD5020FEF745FD0F20FEF74A
:103AE00042FD0020FEF73FFDF820FEF733FD0120E8
:103AF000FEF739FDFE20FEF72DFD0020FEF733FD19
:103B00000220FEF730FD2020FEF724FD3620FEF7D0
:103B100021FD082000E02CE0FEF725FD3A20FEF70D
:103B200019FD5520FEF71FFD2B20FEF713FD002089
:103B3000FEF719FD0020FEF716FD0120FEF713FD2C
:103B40003F20FEF710FD2A20FEF704FD0020FEF7BF
:103B50000AFD0020FEF707FD0120FEF704FDDF202F
:103B6000FEF701FD78200AF0E2FE2920FEF7F2FCC4
:103B70004CE7A648808845F21031884240F07C87A7
:103B8000ED20FEF7E7FC0120FEF7EDFCFE20FEF73E
:103B9000EAFCEE20FEF7DEFCDE20FEF7E4FC21204E
:103BA000FEF7E1FCF120FEF7D5FC0120FEF7DBFC7F
:103BB000DF20FEF7CFFC1020FEF7D5FCC420FEF777
:103BC000C9FC8F20FEF7CFFCC620FEF7C3FC002007
:103BD000FEF7C9FCE220FEF7C6FCE220FEF7C3FCBC
:103BE000E220FEF7C0FCBF20FEF7B4FCAA20FEF7DF
:103BF000BAFCB020FEF7AEFC0D20FEF7B4FC0020AE
:103C0000FEF7B1FC0D20FEF7AEFC0020FEF7ABFC8A
:103C10001120FEF7A8FC0020FEF7A5FC1920FEF7F6
:103C2000A2FC0020FEF79FFC2120FEF79CFC002058
:103C3000FEF799FC2D20FEF796FC0020FEF793FC82
:103C40003D20FEF790FC0020FEF78DFC5D20FEF786
:103C50008AFC0020FEF787FC5D20FEF784FC002034
:103C6000FEF781FCB120FEF775FC8020FEF77BFC9F
:103C70000020FEF778FC8B20FEF775FC0020FEF795
:103C800072FC9620FEF76FFC0020FEF76CFCB22061
:103C9000FEF760FC0020FEF766FC0020FEF763FCE8
:103CA0000220FEF760FC0020FEF75DFC0320FEF71B
:103CB0005AFC0020FEF757FCB320FEF74BFC002017
:103CC000FEF751FC0020FEF74EFC0020FEF74BFCF7
:103CD0000020FEF748FC0020FEF745FC0020FEF720
:103CE00042FC0020FEF73FFC0020FEF73CFC0020D9
:103CF000FEF739FC0020FEF736FC0020FEF733FC0F
:103D00000020FEF730FC0020FEF72DFC0020FEF71F
:103D10002AFC0020FEF727FC0020FEF724FC0020F0
:103D2000FEF721FC0020FEF71EFC0020FEF71BFC26
:103D30000020FEF718FC0020FEF715FC0020FEF71F
:103D400012FC0020FEF70FFC0020FEF70CFCB42054
:103D5000FEF700FC8B20FEF706FC0020FEF703FCBC
:103D60009620FEF700FC0020FEF7FDFBA120FEF7E9
:103D7000FAFB0020FEF7F7FBB520FEF7EBFB022075
:103D8000FEF7F1FB0020FEF7EEFB0320FEF7EBFB56
:103D90000020FEF7E8FB0420FEF7E5FB0020FEF71D
:103DA000E2FBB620FEF7D6FB0020FEF7DCFB00208E
:103DB000FEF7D9FBB720FEF7CDFB0020FEF7D3FBC3
:103DC0000020FEF7D0FB3F20FEF7CDFB0020FEF7E2
:103DD000CAFB5E20FEF7C7FB0020FEF7C4FB642091
:103DE000FEF7C1FB0020FEF7BEFB8C20FEF7BBFBFD
:103DF0000020FEF7B8FBAC20FEF7B5FB0020FEF775
:103E0000B2FBDC20FEF7AFFB002001E0B00C00208D
:103E1000FEF7A9FB7020FEF7A6FB0020FEF7A3FB30
:103E20009020FEF7A0FB0020FEF79DFBEB20FEF7A5
:103E30009AFB0020FEF797FBDC20FEF794FB0020A6
:103E4000FEF791FBB820FEF785FB0020FEF78BFB09
:103E50000020FEF788FB0020FEF785FB0020FEF720
:103E600082FB0020FEF77FFB0020FEF77CFB00209A
:103E7000FEF779FB0020FEF776FBBA20FEF76AFB1F
:103E80002420FEF770FB0020FEF76DFB0020FEF7FC
:103E90006AFB0020FEF767FBC120FEF75BFB2020DA
:103EA000FEF761FB0020FEF75EFB5420FEF75BFB94
:103EB0000020FEF758FBFF20FEF755FB0020FEF721
:103EC00052FBC220FEF746FB0A20FEF74CFB002007
:103ED000FEF749FB0420FEF746FB0020FEF743FBFC
:103EE000C320FEF737FB3C20FEF73DFB0020FEF72A
:103EF0003AFB3A20FEF737FB0020FEF734FB39206F
:103F0000FEF731FB0020FEF72EFB3720FEF72BFBE0
:103F10000020FEF728FB3C20FEF725FB0020FEF7E3
:103F200022FB3620FEF71FFB0020FEF71CFB322091
:103F3000FEF719FB0020FEF716FB2F20FEF713FB00
:103F40000020FEF710FB2C20FEF70DFB0020FEF7F3
:103F50000AFB2920FEF707FB0020FEF704FB2620C2
:103F6000FEF701FB0020FEF7FEFA2420FEF7FBFA25
:103F70000020FEF7F8FA2420FEF7F5FA0020FEF7FD
:103F8000F2FA2320FEF7EFFA0020FEF7ECFA3C20CD
:103F9000FEF7E9FA0020FEF7E6FA3620FEF7E3FA2C
:103FA0000020FEF7E0FA3220FEF7DDFA0020FEF7EF
:103FB000DAFA2F20FEF7D7FA0020FEF7D4FA2C20E9
:103FC000FEF7D1FA0020FEF7CEFA2920FEF7CBFA51
:103FD0000020FEF7C8FA2620FEF7C5FA0020FEF7FB
:103FE000C2FA2420FEF7BFFA0020FEF7BCFA242014
:103FF000FEF7B9FA0020FEF7B6FA2320FEF7B3FA6F
:104000000020FEF7B0FAC420FEF7A4FA6220FEF703
:10401000AAFA0020FEF7A7FA0520FEF7A4FA00206E
:10402000FEF7A1FA8420FEF79EFA0020FEF79BFA25
:10403000F020FEF798FA0020FEF795FA1820FEF718
:1040400092FA0020FEF78FFAA420FEF78CFA0020E7
:10405000FEF789FA1820FEF786FA0020FEF783FAA9
:104060005020FEF780FA0020FEF77DFA0C20FEF7C4
:104070007AFA0020FEF777FA1720FEF774FA00208C
:10408000FEF771FA9520FEF76EFA0020FEF76BFA44
:10409000F320FEF768FA0020FEF765FAE620FEF747
:1040A00062FA0020FEF75FFAC520FEF753FA3220CD
:1040B000FEF759FA0020FEF756FA4420FEF753FAAD
:1040C0000020FEF750FA6520FEF74DFA0020FEF7BB
:1040D0004AFA7620FEF747FA0020FEF744FA8820D5
:1040E000FEF741FA0020FEF73EFAC620FEF732FA4C
:1040F0002020FEF738FA0020FEF735FA1720FEF7E9
:1041000032FA0020FEF72FFA0120FEF72CFA0020E9
:10411000FEF729FAC720FEF71DFA0020FEF723FA62
:104120000020FEF720FA0020FEF71DFA0020FEF71F
:104130001AFAC820FEF70EFA0020FEF714FA002043
:10414000FEF711FA0020FEF70EFA0020FEF70BFA38
:10415000C920FEF7FFF90020FEF705FA0020FEF760
:1041600002FA0020FEF7FFF90020FEF7FCF900201C
:10417000FEF7F9F90020FEF7F6F90020FEF7F3F953
:104180000020FEF7F0F90020FEF7EDF90020FEF721
:10419000EAF90020FEF7E7F90020FEF7E4F9002035
:1041A000FEF7E1F90020FEF7DEF90020FEF7DBF96B
:1041B0000020FEF7D8F9E020FEF7CCF91620FEF734
:1041C000D2F90020FEF7CFF91C20FEF7CCF9002031
:1041D000FEF7C9F92120FEF7C6F90020FEF7C3F962
:1041E0003620FEF7C0F90020FEF7BDF94620FEF7A5
:1041F000BAF90020FEF7B7F95220FEF7B4F9002013
:10420000FEF7B1F96420FEF7AEF90020FEF7ABF936
:104210007A20FEF7A8F90020FEF7A5F98B20FEF71B
:10422000A2F90020FEF79FF99920FEF79CF90020E3
:10423000FEF799F9A820FEF796F90020FEF793F90A
:10424000B920FEF790F90020FEF78DF9C420FEF7A3
:104250008AF90020FEF787F9CA20FEF784F90020CA
:10426000FEF781F9D220FEF77EF90020FEF77BF9F8
:10427000D920FEF778F90020FEF775F9E020FEF767
:1042800072F90020FEF76FF9F320FEF76CF90020B9
:10429000FEF769F9E120FEF75DF91620FEF763F9F4
:1042A0000020FEF760F91C20FEF75DF90020FEF704
:1042B0005AF92220FEF757F90020FEF754F936206C
:1042C000FEF751F90020FEF74EF94520FEF74BF9B5
:1042D0000020FEF748F95220FEF745F90020FEF7CE
:1042E00042F96420FEF73FF90020FEF73CF97A20FE
:1042F000FEF739F90020FEF736F98B20FEF733F987
:104300000020FEF730F99920FEF72DF90020FEF786
:104310002AF9A820FEF727F90020FEF724F9B92092
:10432000FEF721F90020FEF71EF9C420FEF71BF965
:104330000020FEF718F9CA20FEF715F90020FEF755
:1043400012F9D220FEF70FF90020FEF70CF9D82061
:10435000FEF709F90020FEF706F9E020FEF703F961
:104360000020FEF700F9F320FEF7FDF80020FEF72D
:10437000FAF8E220FEF7EEF80520FEF7F4F8002048
:10438000FEF7F1F80B20FEF7EEF80020FEF7EBF851
:104390001B20FEF7E8F80020FEF7E5F83420FEF7D2
:1043A000E2F80020FEF7DFF84420FEF7DCF80020FA
:1043B000FEF7D9F84F20FEF7D6F80020FEF7D3F825
:1043C0006120FEF7D0F80020FEF7CDF87920FEF747
:1043D000CAF80020FEF7C7F88820FEF7C4F80020CE
:1043E000FEF7C1F89720FEF7BEF80020FEF7BBF8F5
:1043F000A620FEF7B8F80020FEF7B5F8B720FEF7C4
:10440000B2F80020FEF7AFF8C220FEF7ACF80020AB
:10441000FEF7A9F8C720FEF7A6F80020FEF7A3F8DC
:10442000D120FEF7A0F80020FEF79DF8D620FEF779
:104430009AF80020FEF797F8DD20FEF794F80020A8
:10444000FEF791F8F320FEF78EF80020FEF78BF8C8
:10445000E320FEF77FF80520FEF785F80020FEF741
:1044600082F80A20FEF77FF80020FEF77CF81C2077
:10447000FEF779F80020FEF776F83320FEF773F8A0
:104480000020FEF770F84420FEF76DF80020FEF7DC
:104490006AF85020FEF767F80020FEF764F8622003
:1044A000FEF761F80020FEF75EF87820FEF75BF873
:1044B0000020FEF758F88820FEF755F80020FEF798
:1044C00052F89720FEF74FF80020FEF74CF8A62090
:1044D000FEF749F80020FEF746F8B720FEF743F84C
:1044E0000020FEF740F8C220FEF73DF80020FEF75E
:1044F0003AF8C720FEF737F80020FEF734F8D1204D
:10450000FEF731F80020FEF72EF8D520FEF72BF845
:104510000020FEF728F8DD20FEF725F80020FEF742
:1045200022F8F320FEF71FF80020FEF71CF8E42025
:10453000FEF710F80120FEF716F80020FEF713F83A
:104540000120FEF710F80020FEF70DF80220FEF71C
:104550000AF80020FEF707F82A20FEF704F80020EA
:10456000FEF701F83C20FDF7FEFF0020FDF7FBFF02
:104570004B20FDF7F8FF0020FDF7F5FF5D20FDF76C
:10458000F2FF0020FDF7EFFF7420FDF7ECFF0020A5
:10459000FDF7E9FF8420FDF7E6FF0020FDF7E3FFCC
:1045A0009320FDF7E0FF0020FDF7DDFFA220FDF7DF
:1045B000DAFF0020FDF7D7FFB320FDF7D4FF00207E
:1045C000FDF7D1FFBE20FDF7CEFF0020FDF7CBFFAA
:1045D000C420FDF7C8FF0020FDF7C5FFCD20FDF783
:1045E000C2FF0020FDF7BFFFD320FDF7BCFF002076
:1045F000FDF7B9FFDD20FDF7B6FF0020FDF7B3FFA3
:10460000F320FDF7B0FF0020FDF7ADFFE520FDF73B
:10461000A1FF0020FDF7A7FF0020FDF7A4FF002069
:10462000FDF7A1FF0020FDF79EFF0220FDF79BFF95
:104630000020FDF798FF2920FDF795FF0020FDF7EA
:1046400092FF3C20FDF78FFF0020FDF78CFF4B20F1
:10465000FDF789FF0020FDF786FF5D20FDF783FF52
:104660000020FDF780FF7420FDF77DFF0020FDF79F
:104670007AFF8420FDF777FF0020FDF774FF932079
:10468000FDF771FF0020FDF76EFFA220FDF76BFF25
:104690000020FDF768FFB320FDF765FF0020FDF760
:1046A00062FFBE20FDF75FFF0020FDF75CFFC42026
:1046B000FDF759FF0020FDF756FFCD20FDF753FF12
:1046C0000020FDF750FFD320FDF74DFF0020FDF740
:1046D0004AFFDC20FDF747FF0020FDF744FFF320F1
:1046E000FDF741FF0020FDF73EFFE620FDF732FF1A
:1046F0001120FDF738FF0020FDF735FF3420FDF7CE
:1047000032FF0020FDF72FFF5620FDF72CFF002081
:10471000FDF729FF7620FDF726FF0020FDF723FF98
:104720007720FDF720FF0020FDF71DFF6620FDF735
:104730001AFF0020FDF717FF8820FDF714FF002067
:10474000FDF711FF9920FDF70EFF0020FDF70BFF8D
:10475000BB20FDF708FF0020FDF705FF9920FDF7BE
:1047600002FF0020FDF7FFFE6620FDF7FCFE0020A3
:10477000FDF7F9FE5520FDF7F6FE0020FDF7F3FEEC
:104780005520FDF7F0FE0020FDF7EDFE4520FDF77A
:10479000EAFE0020FDF7E7FE4320FDF7E4FE0020DF
:1047A000FDF7E1FE4420FDF7DEFE0020FDF7DBFE15
:1047B000E720FDF7CFFE3220FDF7D5FE0020FDF704
:1047C000D2FE5520FDF7CFFE0020FDF7CCFE76206F
:1047D000FDF7C9FE0020FDF7C6FE6620FDF7C3FE0B
:1047E0000020FDF7C0FE6720FDF7BDFE0020FDF7AD
:1047F000BAFE6720FDF7B7FE0020FDF7B4FE872064
:10480000FDF7B1FE0020FDF7AEFE9920FDF7ABFEEF
:104810000020FDF7A8FEBB20FDF7A5FE0020FDF758
:10482000A2FE9920FDF79FFE0020FDF79CFE772059
:10483000FDF799FE0020FDF796FE4420FDF793FE5C
:104840000020FDF790FE5620FDF78DFE0020FDF7BD
:104850008AFE2320FDF787FE0020FDF784FE33202B
:10486000FDF781FE0020FDF77EFE4520FDF77BFE73
:104870000020FDF778FEE820FDF76CFE0020FDF734
:1048800072FE0020FDF76FFE9920FDF76CFE002000
:10489000FDF769FE8720FDF766FE0020FDF763FE49
:1048A0008820FDF760FE0020FDF75DFE7720FDF714
:1048B0005AFE0020FDF757FE6620FDF754FE00204B
:1048C000FDF751FE8820FDF74EFE0020FDF74BFE60
:1048D000AA20FDF748FE0020FDF745FEBB20FDF7AE
:1048E00042FE0020FDF73FFE9920FDF73CFE002030
:1048F000FDF739FE6620FDF736FE0020FDF733FE9A
:104900005520FDF730FE0020FDF72DFE5520FDF768
:104910002AFE0020FDF727FE4420FDF724FE00209C
:10492000FDF721FE4420FDF71EFE0020FDF71BFED3
:104930005520FDF718FE0020FDF715FEE920FDF7D4
:1049400009FEAA20FDF70FFE0020FDF70CFE002057
:10495000FDF709FE0020FDF706FE0020FDF7FAFD39
:10496000AA20FDF700FECF20FDF7F4FD0020FDF7A3
:10497000FAFD0020FDF7F7FD0020FDF7F4FD002013
:10498000FDF7F1FD0020FDF7EEFD0020FDF7EBFD4A
:104990000020FDF7E8FD0020FDF7E5FD0020FDF714
:1049A000E2FD0020FDF7DFFD0020FDF7DCFD00202B
:1049B000FDF7D9FD0020FDF7D6FD0020FDF7D3FD62
:1049C0000020FDF7D0FD0020FDF7CDFD0020FDF714
:1049D000CAFDF020FDF7BEFD0020FDF7C4FD50200C
:1049E000FDF7C1FD0020FDF7BEFD0020FDF7BBFD7A
:1049F0000020FDF7B8FDF320FDF7ACFD0020FDF72A
:104A0000B2FDF920FDF7A6FD0620FDF7ACFD102054
:104A1000FDF7A9FD2920FDF7A6FD0020FDF7A3FD68
:104A20003A20FDF797FD5520FDF79DFD1120FDF77C
:104A300091FD642009F07BFF2920FDF78BFD3520D7
:104A4000FDF788FD0020FDF78EFD5120FDF782FD6A
:104A5000FF20FDF788FD5320FDF77CFD2C20FDF79E
:104A600082FD5520FDF776FD8220FDF77CFD2C2090
:104A7000FDF770FD02F0E9B8FE48808845F210515C
:104A800088427DD155214FF47040FDF77EFDAA216B
:104A90004FF20100FDF779FD52214FF20200FDF7C0
:104AA00074FD08214FF20300FDF76FFD01214FF265
:104AB0000400FDF76AFD0D214FF43040FDF765FD60
:104AC0000D214BF20100FDF760FD0D214BF20200BC
:104AD000FDF75BFD34214FF43640FDF756FD3421E0
:104AE0004BF20160FDF751FD34214BF20260FDF7FE
:104AF0004CFD0D214FF43140FDF747FD0D214BF2E8
:104B00000110FDF742FD0D214BF20210FDF73DFDB6
:104B100034214FF43740FDF738FD34214BF201705A
:104B2000FDF733FD34214BF20270FDF72EFD00211D
:104B30004FF43240FDF729FD00214BF20120FDF733
:104B400024FD00214BF20220FDF71FFD24214FF42C
:104B50003840FDF71AFD24214BF60100FDF715FD45
:104B600024214BF60200FDF710FD01214FF43F40D8
:104B7000FDF70BFD0F214FF43340FDF706FD00E07C
:104B8000FDE30F214BF20130FDF7FFFC0F214BF24B
:104B90000230FDF7FAFC34214FF43940FDF7F5FC03
:104BA00034214BF60110FDF7F0FC34214BF60210D6
:104BB000FDF7EBFC08214FF43540FDF7E6FC08213A
:104BC0004BF20150FDF7E1FC08214BF20250FDF7DA
:104BD000DCFC03214FF44240FDF7D7FC24214FF4C5
:104BE0003A40FDF7D2FC24214BF60120FDF7CDFC25
:104BF00024214BF60220FDF7C8FC00214FF43C4075
:104C0000FDF7C3FC78214BF60140FDF7BEFC002107
:104C10004BF60240FDF7B9FC00214FF43D40FDF793
:104C2000B4FC78214BF60150FDF7AFFC00214BF6A8
:104C30000250FDF7AAFC00214FF43E40FDF7A5FC11
:104C400064214BF60160FDF7A0FC00214FF45140B8
:104C5000FDF79BFC33214DF20110FDF796FC00217E
:104C60004DF20210FDF791FC34214DF20310FDF7D7
:104C70008CFC00214DF20410FDF787FC3A214DF227
:104C80000510FDF782FC00214DF20610FDF77DFCBA
:104C90004A214DF20710FDF778FC00214DF2081073
:104CA000FDF773FC5C214DF20910FDF76EFC00214D
:104CB0004DF20A10FDF769FC81214DF20B10FDF752
:104CC00064FC00214DF20C10FDF75FFCA6214DF2B3
:104CD0000D10FDF75AFC00214DF20E10FDF755FCAA
:104CE000E5214DF20F10FDF750FC01214DF210109F
:104CF000FDF74BFC13214DF21110FDF746FC01218D
:104D00004DF21210FDF741FC54214DF21310FDF746
:104D10003CFC01214DF21410FDF737FC82214DF2CD
:104D20001510FDF732FC01214DF21610FDF72DFC98
:104D3000CA214DF21710FDF728FC02214DF2181080
:104D4000FDF723FC00214DF21910FDF71EFC022196
:104D50004DF21A10FDF719FC01214DF21B10FDF761
:104D600014FC02214DF21C10FDF70FFC34214DF212
:104D70001D10FDF70AFC02214DF21E10FDF705FC87
:104D800067214DF21F10FDF700FC02214DF22010AB
:104D9000FDF7FBFB84214DF22110FDF7F6FB02210C
:104DA0004DF22210FDF7F1FBA4214DF22310FDF787
:104DB000ECFB02214DF22410FDF7E7FBB7214DF289
:104DC0002510FDF7E2FB02214DF22610FDF7DDFB79
:104DD000CF214DF22710FDF7D8FB02214DF228100C
:104DE000FDF7D3FBDE214DF22910FDF7CEFB0221AA
:104DF0004DF22A10FDF7C9FBF2214DF22B10FDF701
:104E0000C4FB02214DF22C10FDF7BFFBFE214DF239
:104E10002D10FDF7BAFB03214DF22E10FDF7B5FB67
:104E200010214DF22F10FDF7B0FB03214DF2301091
:104E3000FDF7ABFB33214DF23110FDF7A6FB03214B
:104E40004DF23210FDF7A1FB6D214DF23310FDF74D
:104E50009CFB00214FF45240FDF797FB33214DF2AC
:104E60000120FDF792FB00214DF20220FDF78DFBA2
:104E7000342101E0B00C00204DF20320FDF785FB4A
:104E800000214DF20420FDF780FB3A214DF2052070
:104E9000FDF77BFB00214DF20620FDF776FB4A2152
:104EA0004DF20720FDF771FB00214DF20820FDF7C0
:104EB0006CFB5C214DF20920FDF767FB00214DF2F0
:104EC0000A20FDF762FB81214DF20B20FDF75DFB0F
:104ED00000214DF20C20FDF758FBA6214DF20D20CC
:104EE000FDF753FB00214DF20E20FDF74EFBE521AF
:104EF0004DF20F20FDF749FB01214DF21020FDF787
:104F000044FB13214DF21120FDF73FFB01214DF22F
:104F10001220FDF73AFB54214DF21320FDF735FB2B
:104F200001214DF21420FDF730FB82214DF21520B6
:104F3000FDF72BFB01214DF21620FDF726FBCA21C0
:104F40004DF21720FDF721FB02214DF21820FDF74D
:104F50001CFB00214DF21920FDF717FB02214DF239
:104F60001A20FDF712FB01214DF21B20FDF70DFB6E
:104F700002214DF21C20FDF708FB34214DF21D20CB
:104F8000FDF703FB02214DF21E20FDF7FEFA67211B
:104F90004DF21F20FDF7F9FA02214DF22020FDF716
:104FA000F4FA84214DF22120FDF7EFFA02214DF2AF
:104FB0002220FDF7EAFAA4214DF22320FDF7E5FABD
:104FC00002214DF22420FDF7E0FAB7214DF2252011
:104FD000FDF7DBFA02214DF22620FDF7D6FACF21AC
:104FE0004DF22720FDF7D1FA02214DF22820FDF7DE
:104FF000CCFADE214DF22920FDF7C7FA02214DF24D
:105000002A20FDF7C2FAF2214DF22B20FDF7BDFA5E
:1050100002214DF22C20FDF7B8FAFE214DF22D2091
:10502000FDF7B3FA03214DF22E20FDF7AEFA102161
:105030004DF22F20FDF7A9FA03214DF23020FDF7A4
:10504000A4FA33214DF23120FDF79FFA03214DF2EE
:105050003220FDF79AFA6D214DF23320FDF795FAD3
:1050600000214FF45340FDF790FA33214DF2013007
:10507000FDF78BFA00214DF20230FDF786FA34215C
:105080004DF20330FDF781FA00214DF20430FDF7B7
:105090007CFA3A214DF20530FDF777FA00214DF206
:1050A0000630FDF772FA4A214DF20730FDF76DFA2E
:1050B00000214DF20830FDF768FA5C214DF209300D
:1050C000FDF763FA00214DF20A30FDF75EFA812107
:1050D0004DF20B30FDF759FA00214DF20C30FDF77F
:1050E00054FAA6214DF20D30FDF74FFA00214DF292
:1050F0000E30FDF74AFAE5214DF20F30FDF745FA83
:1051000001214DF21030FDF740FA13214DF211301C
:10511000FDF73BFA01214DF21230FDF736FA54212A
:105120004DF21330FDF731FA01214DF21430FDF745
:105130002CFA82214DF21530FDF727FA01214DF2AC
:105140001630FDF722FACA214DF21730FDF71DFA8D
:1051500002214DF21830FDF718FA00214DF21930F6
:10516000FDF713FA02214DF21A30FDF70EFA012174
:105170004DF21B30FDF709FA02214DF21C30FDF70C
:1051800004FA34214DF21D30FDF7FFF902214DF2F2
:105190001E30FDF7FAF967214DF21F30FDF7F5F9E2
:1051A00002214DF22030FDF7F0F984214DF221303B
:1051B000FDF7EBF902214DF22230FDF7E6F9A421CB
:1051C0004DF22330FDF7E1F902214DF22430FDF7D5
:1051D000DCF9B7214DF22530FDF7D7F902214DF268
:1051E0002630FDF7D2F9CF214DF22730FDF7CDF96A
:1051F00002214DF22830FDF7C8F9DE214DF22930A9
:10520000FDF7C3F902214DF22A30FDF7BEF9F22174
:105210004DF22B30FDF7B9F902214DF22C30FDF79C
:10522000B4F9FE214DF22D30FDF7AFF903214DF217
:105230002E30FDF7AAF910214DF22F30FDF7A5F918
:1052400003214DF23030FDF7A0F933214DF231301A
:10525000FDF79BF903214DF23230FDF796F96D21F0
:105260004DF23330FDF791F900214FF45440FDF732
:105270008CF933214DF20140FDF787F900214DF201
:105280000240FDF782F934214DF20340FDF77DF92C
:1052900000214DF20440FDF778F93A214DF2054026
:1052A000FDF773F900214DF20640FDF76EF94A2132
:1052B0004DF20740FDF769F900214DF20840FDF776
:1052C00064F95C214DF20940FDF75FF900214DF2D0
:1052D0000A40FDF75AF981214DF20B40FDF755F9CF
:1052E00000214DF20C40FDF750F9A6214DF20D4082
:1052F000FDF74BF900214DF20E40FDF746F9E5218F
:105300004DF20F40FDF741F901214DF21040FDF73C
:105310003CF913214DF21140FDF737F901214DF20F
:105320001240FDF732F954214DF21340FDF72DF9EB
:1053300001214DF21440FDF728F982214DF215406C
:10534000FDF723F901214DF21640FDF71EF9CA21A0
:105350004DF21740FDF719F902214DF21840FDF703
:1053600014F900214DF21940FDF70FF902214DF219
:105370001A40FDF70AF901214DF21B4000E006E357
:10538000FDF703F902214DF21C40FDF7FEF8342130
:105390004DF21D40FDF7F9F802214DF21E40FDF7D8
:1053A000F4F867214DF21F40FDF7EFF802214DF2AE
:1053B0002040FDF7EAF884214DF22140FDF7E5F8A1
:1053C00002214DF22240FDF7E0F8A4214DF22340E6
:1053D000FDF7DBF802214DF22440FDF7D6F8B721A6
:1053E0004DF22540FDF7D1F802214DF22640FDF7A0
:1053F000CCF8CF214DF22740FDF7C7F802214DF23E
:105400002840FDF7C2F8DE214DF22940FDF7BDF836
:1054100002214DF22A40FDF7B8F8F2214DF22B405F
:10542000FDF7B3F802214DF22C40FDF7AEF8FE2156
:105430004DF22D40FDF7A9F803214DF22E40FDF766
:10544000A4F810214DF22F40FDF79FF803214DF2F3
:105450003040FDF79AF833214DF23140FDF795F8D1
:1054600003214DF23240FDF790F86D214DF23340AB
:10547000FDF78BF800214FF45540FDF786F83321F6
:105480004DF20150FDF781F800214DF20250FDF779
:105490007CF834214DF20350FDF777F800214DF2EE
:1054A0000450FDF772F83A214DF20550FDF76DF802
:1054B00000214DF20650FDF768F84A214DF20750E1
:1054C000FDF763F800214DF20850FDF75EF85C210E
:1054D0004DF20950FDF759F800214DF20A50FDF741
:1054E00054F881214DF20B50FDF74FF800214DF299
:1054F0000C50FDF74AF8A6214DF20D50FDF745F886
:1055000000214DF20E50FDF740F8E5214DF20F500D
:10551000FDF73BF801214DF21050FDF736F813214D
:105520004DF21150FDF731F801214DF21250FDF707
:105530002CF854214DF21350FDF727F801214DF2BC
:105540001450FDF722F882214DF21550FDF71DF899
:1055500001214DF21650FDF718F8CA214DF21750EF
:10556000FDF713F802214DF21850FDF70EF8002157
:105570004DF21950FDF709F802214DF21A50FDF7CE
:1055800004F801214DF21B50FCF7FFFF02214DF200
:105590001C50FCF7FAFF34214DF21D50FCF7F5FFCB
:1055A00002214DF21E50FCF7F0FF67214DF21F5013
:1055B000FCF7EBFF02214DF22050FCF7E6FF8421BF
:1055C0004DF22150FCF7E1FF02214DF22250FCF791
:1055D000DCFFA4214DF22350FCF7D7FF02214DF24E
:1055E0002450FCF7D2FFB7214DF22550FCF7CDFF38
:1055F00002214DF22650FCF7C8FFCF214DF2275073
:10560000FCF7C3FF02214DF22850FCF7BEFFDE215C
:105610004DF22950FCF7B9FF02214DF22A50FCF758
:10562000B4FFF2214DF22B50FCF7AFFF02214DF2F7
:105630002C50FCF7AAFFFE214DF22D50FCF7A5FFE0
:1056400003214DF22E50FCF7A0FF10214DF22F50F8
:10565000FCF79BFF03214DF23050FCF796FF3321FE
:105660004DF23150FCF791FF03214DF23250FCF71F
:105670008CFF6D214DF23350FCF787FF00214FF472
:105680005640FCF782FF33214DF20160FCF77DFFAD
:1056900000214DF20260FCF778FF34214DF20360E7
:1056A000FCF773FF00214DF20460FCF76EFF3A2116
:1056B0004DF20560FCF769FF00214DF20660FCF732
:1056C00064FF4A214DF20760FCF75FFF00214DF2B5
:1056D0000860FCF75AFF5C214DF20960FCF755FFAA
:1056E00000214DF20A60FCF750FF81214DF20B6062
:1056F000FCF74BFF00214DF20C60FCF746FFA621A2
:105700004DF20D60FCF741FF00214DF20E60FCF7F9
:105710003CFFE5214DF20F60FCF737FF01214DF210
:105720001060FCF732FF13214DF21160FCF72DFFE2
:1057300001214DF21260FCF728FF54214DF2136055
:10574000FCF723FF01214DF21460FCF71EFF8221BC
:105750004DF21560FCF719FF01214DF21660FCF7C0
:1057600014FFCA214DF21760FCF70FFF02214DF222
:105770001860FCF70AFF00214DF21960FCF705FFE5
:1057800002214DF21A60FCF700FF01214DF21B606F
:10579000FCF7FBFE02214DF21C60FCF7F6FE342103
:1057A0004DF21D60FCF7F1FE02214DF21E60FCF788
:1057B000ECFE67214DF21F60FCF7E7FE02214DF27F
:1057C0002060FCF7E2FE84214DF22160FCF7DDFE53
:1057D00002214DF22260FCF7D8FEA4214DF2236095
:1057E000FCF7D3FE02214DF22460FCF7CEFEB72178
:1057F0004DF22560FCF7C9FE02214DF22660FCF750
:10580000C4FECF214DF22760FCF7BFFE02214DF20E
:105810002860FCF7BAFEDE214DF22960FCF7B5FEE8
:1058200002214DF22A60FCF7B0FEF2214DF22B600E
:10583000FCF7ABFE02214DF22C60FCF7A6FEFE2128
:105840004DF22D60FCF7A1FE03214DF22E60FCF716
:105850009CFE10214DF22F60FCF797FE03214DF2C4
:105860003060FCF792FE33214DF23160FCF78DFE83
:1058700003214DF23260FCF788FE6D214DF233605A
:10588000FCF783FE55214FF47040FCF77EFEAA2101
:105890004FF20100FCF779FE52214FF20200FCF7B3
:1058A00074FE08214FF20300FCF76FFE00214FF257
:1058B0000400FCF76AFECC214FF43140FCF765FE92
:1058C00000214BF20110FCF760FE05214FF4364039
:1058D000FCF75BFE70214FF43740FCF756FE702159
:1058E0004BF20170FCF751FE01214FF43840FCF7F8
:1058F0004CFE03214BF60100FCF747FE03214BF65B
:105900000200FCF742FE03214BF60300FCF73DFECC
:1059100002214FF43C40FCF738FE00214BF60140D9
:10592000FCF733FE00214BF60240FCF72EFED0219F
:105930004FF44940FCF729FE02214CF60110FCF718
:1059400024FE50214CF60210FCF71FFE50214CF6AD
:105950000310FCF71AFE50214CF60410FCF715FE5C
:1059600000214FF45450FCF710FE55214FF46850BD
:10597000FCF70BFE4FF48850FCF7ECFD782008F0A4
:10598000ABFF4FF42450FCF7E5FD01F05EB9FE4893
:10599000808849F2253188427ED147F6F001E52022
:1059A000FCF7F3FD4FF480710120FCF7EEFD4FF49E
:1059B000E0610220FCF7E9FD41F230010320FCF731
:1059C000E4FD00210420FCF7E0FD40F20221082064
:1059D000FCF7DBFD00210920FCF7D7FD00210A20A0
:1059E000FCF7D3FD00210C20FCF7CFFD00210D209A
:1059F000FCF7CBFD00210F20FCF7C7FD0021102094
:105A0000FCF7C3FD07211120FCF7BFFD0021122088
:105A1000FCF7BBFD00211320FCF7B7FD0021072098
:105A2000FCF7B3FD41F290611020FCF7AEFD40F2AF
:105A300027211120FCF7A9FD9D211220FCF7A5FDCF
:105A40004FF4C8511320FCF7A0FD25212920FCF7B5
:105A50009CFD0D212B20FCF798FD07213020FCF741
:105A600094FD40F203313120FCF78FFD03213220F9
:105A7000FCF78BFD40F206213520FCF786FD08215E
:105A80003620FCF782FD40F206413720FCF77DFD11
:105A90004FF44171382000E057E0FCF776FD072114
:105AA0003920FCF772FD40F202613C20FCF76DFDED
:105AB00008213D20FCF769FD00215020FCF765FD21
:105AC000EF215120FCF761FD00215220FCF75DFD24
:105AD00040F23F115320FCF758FD4FF4274160205E
